:020000040800F2
:10000000D804002001010008B7190008D118000821
:10001000B519000835020008D11E000800000000D4
:10002000000000000000000000000000BB190008F4
:100030003702000800000000B9190008BD190008C7
:100040001B0100081B0100081B0100081B01000820
:100050001B0100081B0100081B0100081B01000810
:100060001B0100081B0100081B0100081B01000800
:100070001B0100081B0100081B0100081B010008F0
:100080001B0100081B0100086D0100081B0100088E
:100090001B0100081B0100081B0100081B010008D0
:1000A0001B0100085D1A00081B0100081B01000865
:1000B0001B0100081B0100081B0100081B010008B0
:1000C0001B0100081B0100081B0100081B010008A0
:1000D0001B010008C51E00081B0100081B010008C9
:1000E0001B0100081B0100081B010008DFF80CD0F1
:1000F00000F02AF800480047111F0008D80400202B
:100100000648804706480047FEE7FEE7FEE7FEE7B1
:10011000FEE7FEE7FEE7FEE7FEE7FEE7151A00084A
:10012000ED000008D2B201E000F8012B491EFBD21D
:1001300070470022F6E710B513460A4604461946F2
:10014000FFF7F0FF204610BD064C074D06E0E068C3
:1001500040F0010394E8070098471034AC42F6D30E
:10016000FFF7C8FFDC1F0008FC1F0008014800F073
:1001700018B900002400002070B5044600688168AA
:10018000C943C9071CD1816821F00101816000F0D9
:10019000E7FB05460FE000BF00F0E2FB401B022832
:1001A00009D9A06A40F01000A062E06A40F00100A6
:1001B000E062012070BD20688068C043C007EBD0BA
:1001C000002070BDF8B500260446009600688168DE
:1001D000C943C90728D0816841F0010181601348F3
:1001E00013490068B0FBF1F000E0401E00900028C9
:1001F000FBD100F0B5FB054611E000BF00F0B0FBFD
:10020000401B02280BD9A06A40F01000A062E06AEF
:1002100040F00100E06284F824600120F8BD20680D
:100220008068C043C007E9D10020F8BD200000204D
:1002300040420F00FEE7704770470000F8B5002409
:10024000009490F824202546012A12D0012280F83B
:1002500024204A681F23072A0DD20668776B521E96
:1002600002EB820293409F430B6893401F437763E6
:1002700019E00220F8BD06680D2A0AD2376BD21F9A
:1002800002EB820293409F430B6893401F43376306
:1002900009E0F76A0D3A02EB820293409F430B6834
:1002A00093401F43F7620A68072306680A2A0AD3A5
:1002B000F7680A3A02EB420293409F438B689340EF
:1002C0001F43F76008E0376902EB420293409F4307
:1002D0008B6893401F4337610A68102A01D0112AA6
:1002E00020D1124B02689A4217D193681B0219D48D
:1002F000936843F4000393600968102912D10C49F4
:100300000C4A0968B1FBF2F101EB8101490000E000
:10031000491E00910029FBD104E0816A41F02001CF
:100320008162012480F824502046F8BD0024014059
:100330002000002040420F0010B500F02FF882B2DC
:100340000A20B2FBF0F100FB1124B2FBF0F2114BDA
:10035000303403F10C01CC70B2FBF0F400FB142438
:10036000B2FBF0F230348C70B2FBF0F400FB1424DA
:10037000B2FBF0F230344C705A80B2FBF0F300FB69
:100380001320303008706423BDE810400622024874
:1003900001F040BA00000020940000200068C06C0A
:1003A000704710B5044600684168890626D5016883
:1003B000890723D5A16AC90603D4A16A41F4007153
:1003C000A1628168C1F34241072910D1217B71B933
:1003D000416821F020014160A06A20F48070A06291
:1003E000A06AC00403D4A06A40F00100A0622046C5
:1003F000FFF7A2FF21686FF01200086020684168D3
:1004000009062ED5016849072BD5A16AC90603D470
:10041000A16A41F40051A1628168C1F30231072948
:1004200009D04168490515D48168C1F342410729C3
:1004300010D1217B71B9416821F080014160A06A2F
:1004400020F48050A062A06AC00503D4A06A40F0E6
:100450000100A0622046FFF7EFFE21686FF00C005C
:1004600008602068416849060DD50068C0070AD0B9
:10047000A06A40F48030A062204600F093F8216822
:100480006FF00100086010BD2DE9F0414FF000074A
:1004900004003D467ED0A06A002628B9E66284F8B2
:1004A0002460204600F080F82046FFF765FEA16A30
:1004B000C90600D420B1A06A40F01000A06269E033
:1004C000A16A21F4885141F00201A1626268E169E8
:1004D000237B0A4347EA43010A43A1684FF480772C
:1004E000B94209D0012907D05FF0000194F814C087
:1004F000BCF1010F02D00AE03946F7E7F3B1A36A75
:1005000043F02003A362E36A43F00103E36223683C
:10051000D3F804C02CF4694C4CEA010CC3F804C0B5
:1005200021688B68DFF870C003EA0C0313438B600B
:10053000A168B9420BD0012909D00CE0DFF85CC0FA
:10054000A3690CEB43330B4343F40061DFE7218ADB
:100550000D05A5F580152168CB6A23F470032B43A4
:10056000CB62216889680E4B1940914208D1E6623E
:10057000A16A21F0020141F00101A162BDE8F08110
:10058000A06A20F0020040F01000A062E06A40F093
:100590000100E0620120F1E7FDF7E1FF00E0FFFF6D
:1005A000FE0E1FFF7047000000B585B000210091CE
:1005B00001910291039100681249884220D11248AA
:1005C000816941F400718161816901F400710491D4
:1005D000816941F0040181618069694600F004008D
:1005E00004900120009003200190084800F0C2F818
:1005F00000221146122000F01FFA122000F00EFA1D
:1006000005B000BD00240140001002400008014078
:1006100070B5044690F8240001280DD0012084F81C
:1006200024002046FFF7CEFD02004FF0000005D069
:1006300084F82400104670BD022070BDA16A40F607
:100640000163994341F48071A162224D23682249DC
:10065000AB4218D10E6816F4702F14D0A66A46F477
:100660008016A6620E68760505D5A66A26F40056A1
:1006700046F48056A662A66AF6040AD5E66A26F013
:100680000606E66206E0A66A26F48016A6625E68A2
:10069000E9E7E06284F824006FF002001860206847
:1006A000436843F02003436020688368C3F34243F8
:1006B000072B05D1A84208D1096811F4702F04D086
:1006C000816841F480118160B4E7816841F4A00140
:1006D000F9E70000002801400424014010B590F81B
:1006E00021100024022903D00421816301243DE06C
:1006F00001680A6822F00E020A6001680A6822F0A6
:1007000001020A601A4A0168914201D1012121E0E7
:10071000174A1432914201D110211BE0144A2832A9
:10072000914201D1891515E0114A3C32914201D123
:1007300089140FE00E4A5032914202D14FF48031B9
:1007400008E00B4A6432914202D14FF4801101E07B
:100750004FF08071064A083A5160012180F821105B
:10076000002180F82010416B01B18847204610BD60
:10077000080002402DE9F84FDFF8B891002409F194
:10078000040A0AF1040B23460F270BF1040EC9E0FB
:100790000125A5402A40AA427DD1674ED1F804C068
:1007A000ACEB0608B44532D014DCBCF1030F3AD0F0
:1007B00009DCBCF1000F2AD0BCF1010F1CD0BCF148
:1007C000020F31D11DE0BCF1110F17D0BCF1120F97
:1007D0002AD119E0B8F5881F19D006DCB8F5803F9A
:1007E00015D0B8F5801F1FD111E0B8F5001F0ED04D
:1007F000B8F5041F18D10AE0CB6815E0CB681B1DC3
:1008000012E0CB6808330FE0CB680C330CE08B6848
:100810002BB1012B4FF0080303D0456104E0042302
:1008200002E0056100E00023FF2A01D8064601E04E
:1008300000F104064FEA840501D9A5F12005D6F898
:10084000008007FA05FC28EA0C0803FA05F548EAD7
:100850000508C6F800804D68ED0062D5374DAE69D9
:1008600046F00106AE61AD6924F0030605F001050E
:100870000095334D06EB050CDCF80850A607360F43
:1008800007FA06F825EA0805DFF8B880404503D1E5
:100890004FF0000817E044E0DFF8AC80404502D19B
:1008A0004FF001080FE0DFF8A480404502D14FF07F
:1008B000020808E0DFF89880404502D14FF00308B5
:1008C00001E04FF0040808FA06F848EA0508CCF8F9
:1008D00008804D68D9F80060ED034D4601D51643F8
:1008E00000E096432E604D68DAF80060AD0355468F
:1008F00001D5164300E096432E604D68DBF800609A
:10090000ED025D4601D5164300E096432E604D682A
:10091000DEF80060AD02754601D5164300E096434F
:100920002E60641C0D682A46E5407FF431AFBDE8B7
:10093000F88F000000040140000011100010024078
:100940000000014000080140000C0140001001407F
:10095000001401400AB1016170470904FBE700007F
:100960000148806870470000140000200248816838
:10097000027811448160704714000020074810B5C8
:10098000016841F010010160032000F075F80020BB
:1009900000F006F800F024F8002010BD002002400E
:1009A00070B50D4D04464FF47A712878B1FBF0F024
:1009B0000A490968B1FBF0F000F062FB48B9102C5D
:1009C00007D200222146501E00F036F800206C604D
:1009D00070BD012070BD0000140000202000002028
:1009E0000C4808B5816941F001018161816901F01C
:1009F00001010091C16941F08051C161C06900F0FD
:100A0000805000900448416821F0E06141F080612D
:100A1000416008BD0010024000000140002809DBD1
:100A200000F01F02012191404009800000F1E02008
:100A3000C0F8001170470000F0B40E4B1B680C4664
:100A4000C3F30223C3F10705042D00D90425191DA2
:100A5000072901D2002300E0DB1E012606FA05F17A
:100A6000491E214099409E40761E16403143F0BCFD
:100A700001F02FBA0CED00E0064900F0070208680B
:100A80004FF6FF03184040EA0220034A1043086073
:100A9000704700000CED00E00000FA052DE9F84376
:100AA00005460078354CC00754D0E0690026C000E8
:100AB00008D4E06940F08050E061E069012600F070
:100AC000805000902E480168C90512D40168804604
:100AD00041F480710160FFF743FF074605E000BF66
:100AE000FFF73EFFC01B642823D8D8F80000C005DC
:100AF000F6D5206A10F4407021D0A98801F4407125
:100B000081421CD0206A1F49012220F440700A60F3
:100B100000220A602062C00711D0FFF721FF0746BC
:100B200041F2883808E000BFFFF71AFFC11B4145BA
:100B300002D90320BDE8F883206A8007F4D5206A33
:100B4000696820F44070084320621EB1E06920F01B
:100B50008050E0612878800705D56068A96820F496
:100B60004040084360602878C00605D56068E968A1
:100B700020F48000084360600020DBE700100240A2
:100B800000700040400442422DE9F0470F46050046
:100B900061D0434E306800F00700B84209D2306897
:100BA00020F0070038433060306800F00700B8429A
:100BB00051D128683B4C810712D5400703D56068A6
:100BC00040F4E06060602878000703D5606840F476
:100BD000605060606068A96820F0F00008436060C1
:100BE0002878C00728D06868012810D0216802281A
:100BF00010D0890700292EDA616821F00301014332
:100C00006160FFF7ADFE804641F288390DE0216852
:100C10008903EFE78901EDE7FFF7A2FEA0EB0801EA
:100C2000494502D90320BDE8F0876068696800F093
:100C30000C00B0EB810FEFD1306800F00700B84234
:100C40000BD9306820F0070038433060306800F07E
:100C50000700B84201D00120E5E72878400705D514
:100C60006068E96820F4E060084360602878000765
:100C700006D56068296920F4605040EAC1006060D0
:100C800000F038F86168084AC1F30311515CC840AC
:100C90000649086006480068FFF782FE0020C2E7A8
:100CA0000020024000100240C41F00082000002065
:100CB000180000200448054900684968044AC1F347
:100CC0000221515CC8407047200000200010024003
:100CD000D41F00080448054900684968044AC1F364
:100CE000C221515CC8407047200000200010024023
:100CF000D41F000812A185B00FC98DE80F0014A001
:100D0000144A006804905168134801F00C03042B46
:100D100010D0082B0ED1C1F38343C9031DF8030083
:100D20000AD5516804AAC1F34041515C0A4A5043B4
:100D3000B0FBF1F005B0704708494843FAE70000FE
:100D400002030405060708090A0B0C0D0E0F10100C
:100D5000010200000010024000127A0000093D006C
:100D60002DE9F84F040070D02078C04DC00749D05D
:100D70006868C0F38100012807D06868C0F381006B
:100D8000022809D16868C00306D52868800339D5D0
:100D900060680028E7D035E06068B0F5803F0BD090
:100DA00010B1B0F5A02F11D0286820F48030286051
:100DB000286820F4802002E0286840F48030286011
:100DC000606890B1FFF7CCFD06460AE0286840F461
:100DD00080202860F0E700BFFFF7C2FD801B642879
:100DE00073D828688003F7D50CE0FFF7B9FD0646F5
:100DF00005E000BFFFF7B4FD801B6428F0D8286829
:100E00008003F7D420789A4E80074FF001094FF005
:100E1000000839D5686810F00C0F07D06868C0F377
:100E20008100022809D16868C00306D428688007B9
:100E300014D52069012808D110E02069B0B1C6F8A6
:100E40000090FFF78DFD074605E00AE1FFF788FDFA
:100E5000C01B0228C4D828688007F7D528686169B4
:100E600020F0F80040EAC10028600DE0C6F80080DC
:100E7000FFF776FD074604E0FFF772FDC01B02286E
:100E800023D828688007F7D4207800072CD5794824
:100E9000A169D9B1C0F80090FFF762FD074604E0F0
:100EA000FFF75EFDC01B02280FD8686A8007F7D5E0
:100EB00071484FF4FA510068B0FBF1F0009000BFA8
:100EC0000098411E0091FAD20EE080E0C0F8008048
:100ED000FFF746FD074604E0FFF742FDC01B02286E
:100EE00075D8686A8007F7D42078400760D5E8692C
:100EF0000027C00008D4E86940F08050E861E86944
:100F0000012700F0805000905C480168C90513D4A7
:100F10000168834641F480710160FFF721FD82463C
:100F200006E000BFFFF71CFDA0EB0A0064284ED8C6
:100F3000DBF80000C005F5D5E06801280AD008B14B
:100F4000052813D0286A20F001002862286A20F0C2
:100F5000040002E0286A40F001002862E06841F2E3
:100F6000883B98B1FFF7FCFC82460BE0286A40F012
:100F700004002862EEE700BFFFF7F2FCA0EB0A01D5
:100F800059455AD8286A8007F6D50CE0FFF7E8FCE7
:100F9000824605E0FFF7E4FCA0EB0A0159454CD876
:100FA000286A8007F6D41FB1E86920F08050E86114
:100FB000E06988B36968C1F38101022944D002283D
:100FC000C6F8608004D0FFF7CBFC044638E034E07C
:100FD000FFF7C6FC074604E0FFF7C2FCC01B02286F
:100FE0002BD828688001F7D4206AB0F5803F05D15E
:100FF0006868A16820F4003008436860D4E90801FB
:101000000843696821F4741108436860C6F8609069
:10101000FFF7A6FC044606E025E000BFFFF7A0FCB2
:10102000001B022809D828688001F7D51BE000BF03
:10103000FFF796FC001B022802D90320BDE8F88FB9
:1010400028688001F4D40EE00128F7D06868226A8D
:1010500000F48031914204D1616A00F4701088423A
:1010600001D00120EAE70020E8E70000001002407C
:1010700000004242800442422000002000700040F4
:1010800010B5401EB0F1807F01D3012010BD4FF09C
:10109000E02460610F21601700F01BFF0020A061B9
:1010A00007202061002010BD7047704710B590F8F0
:1010B0003C20012A22D0012280F83C20CA688C689A
:1010C00022F4407222434C6822F4806222430C686E
:1010D00022F4006222430C6922F4805222434C69BC
:1010E00022F400522243C969002322F480420A43B9
:1010F00001684A6480F83C30002010BD022010BD19
:1011000070B590F83C20012A19D0012400F83C4F1A
:101110000222427050F83C3C5A689D6822F07006EA
:101120000A684968324325F0800529435A6050F81F
:101130003C2C9160447000210170084670BD022073
:1011400070BD10B5040003D094F83D0010B107E065
:10115000012010BD002084F83C00204600F00CF86F
:10116000022084F83D00211D206800F07DFC012054
:1011700084F83D00002010BD08B500680B49884286
:1011800012D10B48816941F40061816180690022BC
:1011900000F40060009011461920FFF74DFCBDE8F7
:1011A00008401920FFF73ABC08BD0000002C0140A0
:1011B000001002400168CA6842F00102CA6000687B
:1011C000816801F00701062903D0016841F001019F
:1011D00001600020704770B5044690F83C0001287B
:1011E00017D0012584F83C50022084F83D00206887
:1011F000826822F0770222F47F42826008685028D9
:1012000030D00DDC20284DD005DC98B310283BD120
:1012100048E0022070BD302844D0402834D139E065
:10122000602828D0702806D0B0F5805F2CD0B0F5AB
:10123000005F29D10AE0CB68D1E90121206800F0E4
:1012400049FC2068816841F0770109E0CB68D1E969
:101250000121206800F03EFC2068816841F4804153
:10126000816011E0CA684968206800F0E7FC5021FD
:10127000206807E016E0CA684968206800F0EFFCC3
:101280006021206800F030FC84F83D50002084F894
:101290003C0070BDCA684968206800F0CFFC40215E
:1012A0002068EFE7226801461046EBE7704770B50B
:1012B0000446006801694FF00005C943890715D449
:1012C000C168C943890711D4E91E01610120207753
:1012D000206880698007204602D0FFF7E7FF04E01E
:1012E00000F098F8204600F01AF925772068016987
:1012F000C943490717D4C168C943490713D46FF0DC
:1013000004010161022020772068806910F4407F89
:10131000204602D0FFF7CAFF04E000F07BF8204629
:1013200000F0FDF8257720680169C943090716D444
:10133000C168C943090712D46FF008010161042094
:1013400020772068C0698007204602D0FFF7AEFFF3
:1013500004E000F05FF8204600F0E1F8257720680F
:101360000169C943C90617D4C168C943C90613D462
:101370006FF010010161082020772068C06910F427
:10138000407F204602D0FFF791FF04E000F042F8D2
:10139000204600F0C4F8257720680169C943C907D1
:1013A00008D1C168C943C90704D1891E016120461B
:1013B00000F0B6F820680169C943090609D4C1687C
:1013C000C943090605D46FF0800101612046FFF78B
:1013D0006BFE20680169C943490609D4C168C94345
:1013E000490605D46FF040010161204600F09EF8E7
:1013F00020680169C94389060BD4C168C9438906BD
:1014000007D46FF0200101612046BDE87040FFF76E
:101410004CBE70BD704770B5044690F83C000D4658
:1014200001280DD0012684F83C60022084F83D009C
:1014300042B1042A18D0082A2AD00C2A4DD139E00A
:10144000022070BD206800F057FB2068816941F0E0
:10145000080181612068816921F0040181612068AF
:1014600081692A69114311E0206800F06DFB206852
:10147000816941F4006181612068816921F48061A2
:101480008161206881692A6941EA0221816124E041
:10149000206800F085FB2068C16941F00801C16146
:1014A0002068C16921F00401C1612068C1692A690D
:1014B000114311E0206800F09FFB2068C16941F4EE
:1014C0000061C1612068C16921F48061C161206847
:1014D000C1692A6941EA0221C16184F83D600020A6
:1014E00084F83C0070BD10B5040003D094F83D00B2
:1014F00010B107E0012010BD002084F83C00204618
:1015000000F00CF8022084F83D00211D206800F056
:10151000ABFA012084F83D00002010BD70477047F1
:101520000148FFF775B8000024000020704770479D
:1015300070B5026804461068D168536910F00F0F47
:1015400050D003F0010501F4907635435DD0C20719
:1015500005D0CA0503D5E26B42F00102E2634207FF
:1015600005D5DA0703D0E26B42F00202E26382079C
:1015700005D5DA0703D0E26B42F00402E26302070A
:1015800005D5DA0703D0E26B42F00802E263E26BB2
:10159000002A33D0800604D5880602D5204600F004
:1015A00086FB20684069E16BC0F38010090700D416
:1015B00028B3204600F06DFB2068416949061AD522
:1015C000416921F040014161606BA0B11B49416359
:1015D000606BFFF783F8002810D0606B416BBDE8AB
:1015E00070400847830610D58B060ED52046BDE80F
:1015F000704000F05CBB2046FFF799FF70BD2046AD
:10160000FFF795FF0020E06370BD030606D50B06CB
:1016100004D52046BDE8704000F0F0BB4006F3D58D
:101620004806F1D5D168204621F04001D160202143
:1016300084F8391000F04BF970BD0000831C0008DD
:1016400070B5040004D094F83900002510B106E00C
:10165000012070BD84F83850204600F023F8242083
:1016600084F839002068C16821F40051C160204627
:1016700000F068FB2068016921F490410161206855
:10168000416921F02A0141612068C16841F400519B
:10169000C160E563202084F8390084F83A00002016
:1016A00070BD000030B585B0002400940194029410
:1016B00003940068184988422CD11848816941F484
:1016C00080418161816901F480410491816941F027
:1016D000040181618069124D00F0040004904FF410
:1016E0000070009002200190032003906946284674
:1016F000FFF740F82815CDE9000469462846029412
:10170000FFF738F8002211462520FFF795F925202C
:10171000FFF784F905B030BD0038014000100240E9
:101720000008014090F83A30202B22D1F9B1F2B1F3
:1017300090F83830012B1CD081628285C28500214F
:10174000C163222280F83A2080F838100168CA6804
:1017500042F48072CA6001684A6942F001024A613B
:101760000068C16841F02001C1600020704701207D
:1017700070470220704700001CB5642301222049F5
:10178000204800F047F81E484FF4805102781E4868
:10179000612A1BD0622A1BD01948632A1CD0816899
:1017A00061B1A2F13001092908D841686FF02F0317
:1017B00001EB810103EB41011144416002B00122C0
:1017C000BDE810400E490F48FFF7ACBF002200E013
:1017D0000122FFF7BFF8F1E78268002162B1816062
:1017E0000AA16423D1E90001CDE90001072269467D
:1017F000044800F00FF8E1E70122C0E90112DDE73B
:101800000000002094000020000C0140646F6E6511
:101810000D0A00002DE9F843044690F839001F46F0
:1018200016460D46202850D1A5B19EB194F8380037
:1018300001284AD0012084F838004FF00008C4F88D
:101840003C80212084F83900FFF78AF8A68481467D
:10185000E68426E00120BDE8F883E08C401EE084A9
:10186000A0684B46B0F5805F4FF000024FF080015A
:101870002046009703D000F0F2FAE8B90DE000F03E
:10188000EEFAC8B928882168C0F3080048602069CA
:1018900008B16D1C05E0AD1C03E0216815F8010BD3
:1018A0004860E08C0028D8D14B46002240212046D9
:1018B000009700F0D4FA08B10320CCE7202084F888
:1018C000390084F838800020C5E70220C3E770475C
:1018D000FEE700003EB500240D48009401940294F8
:1018E0000A498460016004730475012505614FF4A1
:1018F00060214460C161FEF7C7FDCDE9004569463E
:1019000003480294FEF79AFC3EBD0000002401400B
:101910002400002010B596B000240F941094119468
:10192000129413941C2108A81494FEF702FC2021A1
:101930006846FEF7FEFB1E481C49016041F63F71F8
:10194000C0E901140911C0E9031444618461FFF77F
:10195000F8FB4FF480500F900FA91548FFF73BFCA0
:101960001348FFF7C0FD139413A911481494FFF70F
:10197000C7FB6020CDE908040A940B940C940D94E5
:10198000002208A90A480E94FFF745FD00944FF481
:101990000050CDE904400294019403946946044840
:1019A0000794FFF783FB16B010BD0000002C014028
:1019B00054000020FEE7704770477047FEF7D6BF1F
:1019C00030B593B028216846FEF7B3FB14210AA86E
:1019D000FEF7AFFB002401200F9402250490009530
:1019E0001020119405901094129407946846FFF704
:1019F000B7F90F20CDE90A040C940D9400210AA830
:101A00000E94FFF7C1F80FA80F951194FFF746F851
:101A100013B030BD0D48016841F00101016041681B
:101A20000B4A1140416001680A4A11400160016897
:101A300021F480210160416821F4FE0141604FF4EE
:101A40001F0181600449C003086070470010024014
:101A50000000FFF8FFFFF6FE08ED00E00148FFF789
:101A600026BC000054000020F0B50268164B174C4D
:101A7000174D4FF08047984205D0B84203D0A0429E
:101A800001D0A84203D122F070064A68324398423E
:101A900005D0B84203D0A04201D0A84203D122F41D
:101AA0004074CA6822434C6922F0800222430260DB
:101AB0008A68C2620A688262984201D10969016338
:101AC00001214161F0BD0000002C014000040040F4
:101AD0000008004010B5846842EA032224F47F44E1
:101AE0000A432243826010BD826822F070020A43DA
:101AF00042F007018160704730B5026A22F00102AE
:101B00000262026A4368846924F073050C682C43FE
:101B100022F002058A682A430A4DA8420BD122F01E
:101B20000805CA6823F440732A434D6922F0040271
:101B30001D438B692B4343608461496841630262A2
:101B400030BD0000002C014030B5026A22F01002C6
:101B50000262026A436884690D6824F4E64444EA38
:101B600005248D6822F0200242EA05120B4DA8429E
:101B70000ED1CD6822F0800242EA05124D6923F4AD
:101B8000406343EA85038D6922F0400243EA8503FE
:101B90004360846149688163026230BD002C01406A
:101BA00030B5026A22F480720262036A4268C46934
:101BB00023F4007324F073050C682C438D6843EA0A
:101BC00005230C4DA8420ED1CD6823F4006343EAEF
:101BD00005234D6922F4405242EA05128D6923F42F
:101BE000806342EA05124260C4614968C1630362CE
:101BF00030BD0000002C014030B5026A22F4805252
:101C00000262046A4268C3690D6823F4E64343EA4A
:101C100005238D6824F4005444EA0534064DA84297
:101C200004D14D6922F4804242EA85124260C361C8
:101C300049680164046230BD002C014010B5036A9C
:101C4000046A24F001040462846924F0F00444EA84
:101C5000021423F00A020A438461026210BD10B527
:101C6000036A23F0100303628369046A23F4704358
:101C700043EA023224F0A00343EA011182610162C7
:101C800010BD10B5406A0021C185C184FFF74FFC2B
:101C900010BD0168CA6822F49072CA6001684A697E
:101CA00022F001024A61202180F83A10704710B5F5
:101CB00090F83A10222901D0022010BD8168B1F5B8
:101CC000805F11D00169002901681FD0496801F0C7
:101CD0007F03816A4A1C82620B70C18D491E090410
:101CE000090CC18518D02BE00269816A002A0268BC
:101CF000526805D0D2B20A80816A491C8162ECE741
:101D0000C2F308020A80816A891CF7E74A68816A7F
:101D10004B1C83620A70E0E70168CA6822F0200267
:101D2000CA600168CA6822F48072CA6001684A69A0
:101D300022F001024A61202180F83A10FFF71CFDD1
:101D4000002010BD2DE9F041044600680169E268F9
:101D500021F44051114301612169A0680843616980
:101D600008432168CA6841F20C639A430243CA607F
:101D700020684169A26921F44071114341611E4903
:101D8000206864253226884202D1FEF7A3FF01E0D5
:101D9000FEF790FF00EBC00101EB001160686FF0EF
:101DA00018078000B1FBF0F2B2FBF5F2B1FBF0F3E3
:101DB0007A4303EB8202B1FBF0F306EB0212B2FBB3
:101DC000F5F2B3FBF5F302F0F00202EB0312B1FB04
:101DD000F0F3B1FBF0F0B0FBF5F0784303EB8000DB
:101DE00006EB0010B0FBF5F0216800F00F00104486
:101DF0008860BDE8F08100000038014090F839109B
:101E0000212901D0022070478168B1F5805F016A05
:101E10000BD04A1C0262026809785160C18C491ECD
:101E20000904090CC1840ED017E009880268C1F3C7
:101E30000801516001690029016A02D0491C016250
:101E4000ECE7891CFBE70168CA6822F08002CA60DF
:101E50000068C16841F04001C160002070472DE971
:101E6000F041984617460E460446069D1DE0681C44
:101E70001BD02DB1FEF774FDA0EB0800A84214D9C9
:101E80002068C16821F4D071C1602068416921F0E7
:101E900001014161202084F8390084F83A000020D3
:101EA00084F838000320BDE8F0812068006836EA35
:101EB000000004D00020B842D9D00020F3E7012070
:101EC000F9E700000148FFF733BB00009400002051
:101ED000FEE70907090E002804DB00F1E02080F886
:101EE0000014704700F00F0000F1E02080F8141D8E
:101EF000704702E008C8121F08C1002AFAD17047D3
:101F00007047002001E001C1121F002AFBD1704779
:101F100086B0FEF733FDFFF753FD002424480094FC
:101F2000019402940394816941F004018161816903
:101F300001F004010491816941F008018161806927
:101F40001C4E00F008004FF48055049000222946F2
:101F50003046FEF7FFFC01200095CDE90104022088
:101F6000039069463046FEF705FC144A124810609B
:101F70004FF41650C2E901040C20D460C2E90440B9
:101F800094611046D461FFF75BFBFFF7A3FCFFF7FA
:101F9000C1FC012229463046FEF7DCFC012208493B
:101FA0000648FFF7BFFB05484038FFF703F9FEE797
:101FB00000100240000C0140003801409400002055
:101FC00000000020000000000000000001020304E7
:101FD000060708090000000001020304FC1F0008B6
:101FE0000000002024000000F21E0008202000084D
:101FF00024000020B4040000021F000800000000BC
:102000000000000000000000000000000D0A0000B9
:102010000100000010000000000000000024F40097
:04000005080000ED02
:00000001FF
